{
  "address": "0x610178dA211FEF7D417bC0e6FeD39F05609AD788",
  "abi": [
    {
      "inputs": [
        {
          "internalType": "contract IConfig",
          "name": "config",
          "type": "address"
        }
      ],
      "stateMutability": "nonpayable",
      "type": "constructor"
    },
    {
      "inputs": [],
      "name": "accTxFee",
      "outputs": [
        {
          "internalType": "uint256",
          "name": "",
          "type": "uint256"
        }
      ],
      "stateMutability": "view",
      "type": "function"
    },
    {
      "inputs": [
        {
          "internalType": "bool",
          "name": "isTxFee",
          "type": "bool"
        }
      ],
      "name": "accumulate",
      "outputs": [],
      "stateMutability": "payable",
      "type": "function"
    },
    {
      "inputs": [],
      "name": "config",
      "outputs": [
        {
          "internalType": "contract IConfig",
          "name": "",
          "type": "address"
        }
      ],
      "stateMutability": "view",
      "type": "function"
    },
    {
      "inputs": [
        {
          "internalType": "address",
          "name": "validator",
          "type": "address"
        },
        {
          "internalType": "uint256",
          "name": "earned",
          "type": "uint256"
        }
      ],
      "name": "earn",
      "outputs": [],
      "stateMutability": "nonpayable",
      "type": "function"
    },
    {
      "inputs": [],
      "name": "globalTimestamp",
      "outputs": [
        {
          "internalType": "uint256",
          "name": "",
          "type": "uint256"
        }
      ],
      "stateMutability": "view",
      "type": "function"
    },
    {
      "inputs": [],
      "name": "onAssignBlockReward",
      "outputs": [],
      "stateMutability": "nonpayable",
      "type": "function"
    },
    {
      "inputs": [
        {
          "internalType": "address",
          "name": "",
          "type": "address"
        }
      ],
      "name": "sharesOf",
      "outputs": [
        {
          "internalType": "uint256",
          "name": "",
          "type": "uint256"
        }
      ],
      "stateMutability": "view",
      "type": "function"
    },
    {
      "inputs": [],
      "name": "totalShares",
      "outputs": [
        {
          "internalType": "uint256",
          "name": "",
          "type": "uint256"
        }
      ],
      "stateMutability": "view",
      "type": "function"
    },
    {
      "inputs": [
        {
          "internalType": "uint256",
          "name": "",
          "type": "uint256"
        }
      ],
      "name": "validators",
      "outputs": [
        {
          "internalType": "address",
          "name": "",
          "type": "address"
        }
      ],
      "stateMutability": "view",
      "type": "function"
    },
    {
      "inputs": [],
      "name": "validatorsLength",
      "outputs": [
        {
          "internalType": "uint256",
          "name": "",
          "type": "uint256"
        }
      ],
      "stateMutability": "view",
      "type": "function"
    }
  ],
  "transactionHash": "0x5a1432aa4857e7cdee9b553a4fbf32b96bdea804b75e7aa7f71eac01cffa4f22",
  "args": [
    "0x5FbDB2315678afecb367f032d93F642f64180aa3"
  ],
  "solcInputHash": "140b184ea212973259cc7f2e35ce1b61",
  "bytecode": "0x608060405234801561001057600080fd5b50604051610b7f380380610b7f8339818101604052602081101561003357600080fd5b50516001600081905580546001600160a01b039092166001600160a01b0319909216919091179055610b158061006a6000396000f3fe6080604052600436106100915760003560e01c8063ce3f35c111610059578063ce3f35c114610168578063ecbe40c514610187578063f1105a7e1461019c578063f5eb42dc146101b1578063f976c33c146101e457610091565b80631067af441461009657806335aa2e44146100ad5780633a98ef39146100f357806379502c551461011a578063b02bf4b91461012f575b600080fd5b3480156100a257600080fd5b506100ab6101f9565b005b3480156100b957600080fd5b506100d7600480360360208110156100d057600080fd5b50356105b5565b604080516001600160a01b039092168252519081900360200190f35b3480156100ff57600080fd5b506101086105dc565b60408051918252519081900360200190f35b34801561012657600080fd5b506100d76105e2565b34801561013b57600080fd5b506100ab6004803603604081101561015257600080fd5b506001600160a01b0381351690602001356105f1565b6100ab6004803603602081101561017e57600080fd5b503515156107c2565b34801561019357600080fd5b50610108610905565b3480156101a857600080fd5b5061010861090b565b3480156101bd57600080fd5b50610108600480360360208110156101d457600080fd5b50356001600160a01b0316610911565b3480156101f057600080fd5b50610108610923565b60026000541415610251576040805162461bcd60e51b815260206004820152601f60248201527f5265656e7472616e637947756172643a207265656e7472616e742063616c6c00604482015290519081900360640190fd5b6002600055600154604080516303e21fa960e61b815290516001600160a01b039092169163f887ea4091600480820192602092909190829003018186803b15801561029b57600080fd5b505afa1580156102af573d6000803e3d6000fd5b505050506040513d60208110156102c557600080fd5b50516001600160a01b03163314610317576040805162461bcd60e51b815260206004820152601160248201527027b7363c9d1037b7363c903937baba32b960791b604482015290519081900360640190fd5b426103a4600160009054906101000a90046001600160a01b03166001600160a01b031663575b76da6040518163ffffffff1660e01b815260040160206040518083038186803b15801561036957600080fd5b505afa15801561037d573d6000803e3d6000fd5b505050506040513d602081101561039357600080fd5b50516005549063ffffffff61092916565b10156105ae57600354600654479190158015906103c057508015155b80156103cb57508115155b156105a25760015460408051637542ff9560e01b815290516000926001600160a01b031691637542ff95916004808301926020929190829003018186803b15801561041557600080fd5b505afa158015610429573d6000803e3d6000fd5b505050506040513d602081101561043f57600080fd5b505160065490915060009061045b90600163ffffffff61098c16565b90505b60006006828154811061046d57fe5b60009182526020822001546001600160a01b0316915082156104c1576001600160a01b03821660009081526002602052604090205485906104b4908863ffffffff6109ce16565b816104bb57fe5b046104c3565b475b9050801561053d57836001600160a01b0316636353586b82846040518363ffffffff1660e01b815260040180826001600160a01b03166001600160a01b031681526020019150506000604051808303818588803b15801561052357600080fd5b505af1158015610537573d6000803e3d6000fd5b50505050505b6001600160a01b038216600090815260026020526040812055600680548061056157fe5b600082815260209020810160001990810180546001600160a01b03191690550190558261058f57505061059a565b50506000190161045e565b505060006004555b50506000600355426005555b6001600055565b600681815481106105c257fe5b6000918252602090912001546001600160a01b0316905081565b60035481565b6001546001600160a01b031681565b60026000541415610649576040805162461bcd60e51b815260206004820152601f60248201527f5265656e7472616e637947756172643a207265656e7472616e742063616c6c00604482015290519081900360640190fd5b6002600055600154604080516303e21fa960e61b815290516001600160a01b039092169163f887ea4091600480820192602092909190829003018186803b15801561069357600080fd5b505afa1580156106a7573d6000803e3d6000fd5b505050506040513d60208110156106bd57600080fd5b50516001600160a01b0316331461070f576040805162461bcd60e51b815260206004820152601160248201527027b7363c9d1037b7363c903937baba32b960791b604482015290519081900360640190fd5b6001600160a01b0382166000908152600260205260409020548061077957600680546001810182556000919091527ff652222313e28459528d920b65115c16c04f3efc82aaedc97be59f3f377c0d3f0180546001600160a01b0319166001600160a01b0385161790555b610789818363ffffffff61092916565b6001600160a01b0384166000908152600260205260409020556003546107b5908363ffffffff61092916565b6003555050600160005550565b6002600054141561081a576040805162461bcd60e51b815260206004820152601f60248201527f5265656e7472616e637947756172643a207265656e7472616e742063616c6c00604482015290519081900360640190fd5b6002600055600154604080516303e21fa960e61b815290516001600160a01b039092169163f887ea4091600480820192602092909190829003018186803b15801561086457600080fd5b505afa158015610878573d6000803e3d6000fd5b505050506040513d602081101561088e57600080fd5b50516001600160a01b031633146108e0576040805162461bcd60e51b815260206004820152601160248201527027b7363c9d1037b7363c903937baba32b960791b604482015290519081900360640190fd5b80156108fd576004546108f9903463ffffffff61092916565b6004555b506001600055565b60055481565b60065490565b60026020526000908152604090205481565b60045481565b600082820183811015610983576040805162461bcd60e51b815260206004820152601b60248201527f536166654d6174683a206164646974696f6e206f766572666c6f770000000000604482015290519081900360640190fd5b90505b92915050565b600061098383836040518060400160405280601e81526020017f536166654d6174683a207375627472616374696f6e206f766572666c6f770000815250610a27565b6000826109dd57506000610986565b828202828482816109ea57fe5b04146109835760405162461bcd60e51b8152600401808060200182810382526021815260200180610abf6021913960400191505060405180910390fd5b60008184841115610ab65760405162461bcd60e51b81526004018080602001828103825283818151815260200191508051906020019080838360005b83811015610a7b578181015183820152602001610a63565b50505050905090810190601f168015610aa85780820380516001836020036101000a031916815260200191505b509250505060405180910390fd5b50505090039056fe536166654d6174683a206d756c7469706c69636174696f6e206f766572666c6f77a2646970667358221220fbff1044bcffd45102f09d7b276989e0cb2b5a5db786e6c9ec75931dad47e35c64736f6c63430006020033",
  "devdoc": {
    "methods": {
      "accumulate(bool)": {
        "details": "Add reward to fee pool.",
        "params": {
          "isTxFee": "Is transaction fee"
        }
      },
      "earn(address,uint256)": {
        "details": "Increase miner's share.",
        "params": {
          "earned": "Miner earned share.",
          "validator": "Miner address"
        }
      },
      "onAssignBlockReward()": {
        "details": "Assign block reward callback, it only can be called by router."
      },
      "validatorsLength()": {
        "details": "Get validators length."
      }
    }
  },
  "userdoc": {
    "methods": {}
  },
  "storageLayout": {
    "storage": [
      {
        "astId": 1404,
        "contract": "src/FeePool.sol:FeePool",
        "label": "_status",
        "offset": 0,
        "slot": "0",
        "type": "t_uint256"
      },
      {
        "astId": 3757,
        "contract": "src/FeePool.sol:FeePool",
        "label": "config",
        "offset": 0,
        "slot": "1",
        "type": "t_contract(IConfig)6296"
      },
      {
        "astId": 3059,
        "contract": "src/FeePool.sol:FeePool",
        "label": "sharesOf",
        "offset": 0,
        "slot": "2",
        "type": "t_mapping(t_address,t_uint256)"
      },
      {
        "astId": 3062,
        "contract": "src/FeePool.sol:FeePool",
        "label": "totalShares",
        "offset": 0,
        "slot": "3",
        "type": "t_uint256"
      },
      {
        "astId": 3065,
        "contract": "src/FeePool.sol:FeePool",
        "label": "accTxFee",
        "offset": 0,
        "slot": "4",
        "type": "t_uint256"
      },
      {
        "astId": 3068,
        "contract": "src/FeePool.sol:FeePool",
        "label": "globalTimestamp",
        "offset": 0,
        "slot": "5",
        "type": "t_uint256"
      },
      {
        "astId": 3072,
        "contract": "src/FeePool.sol:FeePool",
        "label": "validators",
        "offset": 0,
        "slot": "6",
        "type": "t_array(t_address)dyn_storage"
      }
    ],
    "types": {
      "t_address": {
        "encoding": "inplace",
        "label": "address",
        "numberOfBytes": "20"
      },
      "t_array(t_address)dyn_storage": {
        "base": "t_address",
        "encoding": "dynamic_array",
        "label": "address[]",
        "numberOfBytes": "32"
      },
      "t_contract(IConfig)6296": {
        "encoding": "inplace",
        "label": "contract IConfig",
        "numberOfBytes": "20"
      },
      "t_mapping(t_address,t_uint256)": {
        "encoding": "mapping",
        "key": "t_address",
        "label": "mapping(address => uint256)",
        "numberOfBytes": "32",
        "value": "t_uint256"
      },
      "t_uint256": {
        "encoding": "inplace",
        "label": "uint256",
        "numberOfBytes": "32"
      }
    }
  }
}