{
  "address": "0xA51c1fc2f0D1a1b8494Ed1FE312d7C3a78Ed91C0",
  "abi": [
    {
      "inputs": [
        {
          "internalType": "contract IConfig",
          "name": "config",
          "type": "address"
        }
      ],
      "stateMutability": "nonpayable",
      "type": "constructor"
    },
    {
      "inputs": [],
      "name": "config",
      "outputs": [
        {
          "internalType": "contract IConfig",
          "name": "",
          "type": "address"
        }
      ],
      "stateMutability": "view",
      "type": "function"
    },
    {
      "inputs": [
        {
          "internalType": "address",
          "name": "user",
          "type": "address"
        },
        {
          "internalType": "uint256",
          "name": "usage",
          "type": "uint256"
        }
      ],
      "name": "consume",
      "outputs": [],
      "stateMutability": "nonpayable",
      "type": "function"
    },
    {
      "inputs": [
        {
          "internalType": "address",
          "name": "user",
          "type": "address"
        },
        {
          "internalType": "uint256",
          "name": "timestamp",
          "type": "uint256"
        }
      ],
      "name": "estimateFreeFee",
      "outputs": [
        {
          "internalType": "uint256",
          "name": "",
          "type": "uint256"
        }
      ],
      "stateMutability": "view",
      "type": "function"
    },
    {
      "inputs": [
        {
          "internalType": "uint256",
          "name": "timestamp",
          "type": "uint256"
        }
      ],
      "name": "estimateTotalLeft",
      "outputs": [
        {
          "internalType": "uint256",
          "name": "totalLeft",
          "type": "uint256"
        }
      ],
      "stateMutability": "view",
      "type": "function"
    },
    {
      "inputs": [
        {
          "components": [
            {
              "internalType": "uint256",
              "name": "usage",
              "type": "uint256"
            },
            {
              "internalType": "uint256",
              "name": "timestamp",
              "type": "uint256"
            }
          ],
          "internalType": "struct IFreeFee.UsageInfo",
          "name": "ui",
          "type": "tuple"
        },
        {
          "internalType": "uint256",
          "name": "timestamp",
          "type": "uint256"
        }
      ],
      "name": "estimateUsage",
      "outputs": [
        {
          "internalType": "uint256",
          "name": "",
          "type": "uint256"
        }
      ],
      "stateMutability": "view",
      "type": "function"
    },
    {
      "inputs": [],
      "name": "globalTimestamp",
      "outputs": [
        {
          "internalType": "uint256",
          "name": "",
          "type": "uint256"
        }
      ],
      "stateMutability": "view",
      "type": "function"
    },
    {
      "inputs": [],
      "name": "onAfterBlock",
      "outputs": [],
      "stateMutability": "nonpayable",
      "type": "function"
    },
    {
      "inputs": [],
      "name": "totalUsage",
      "outputs": [
        {
          "internalType": "uint256",
          "name": "",
          "type": "uint256"
        }
      ],
      "stateMutability": "view",
      "type": "function"
    },
    {
      "inputs": [
        {
          "internalType": "address",
          "name": "",
          "type": "address"
        }
      ],
      "name": "userUsage",
      "outputs": [
        {
          "internalType": "uint256",
          "name": "usage",
          "type": "uint256"
        },
        {
          "internalType": "uint256",
          "name": "timestamp",
          "type": "uint256"
        }
      ],
      "stateMutability": "view",
      "type": "function"
    }
  ],
  "transactionHash": "0x5b5e8a9fc192eed6a2a3352b6e231dab90ae7724e2dcdd643a1129ffbedd7f1f",
  "args": [
    "0x5FbDB2315678afecb367f032d93F642f64180aa3"
  ],
  "solcInputHash": "140b184ea212973259cc7f2e35ce1b61",
  "bytecode": "0x608060405234801561001057600080fd5b50604051610a2c380380610a2c83398101604081905261002f91610059565b6001600081905580546001600160a01b0319166001600160a01b0392909216919091179055610087565b60006020828403121561006a578081fd5b81516001600160a01b0381168114610080578182fd5b9392505050565b610996806100966000396000f3fe608060405234801561001057600080fd5b50600436106100935760003560e01c80639facc9e4116100665780639facc9e4146100f3578063b0527b9714610106578063c18402fa14610119578063cefc7deb1461013a578063ecbe40c51461014257610093565b8063224b5c721461009857806379502c55146100ad5780638ebb7ce2146100cb5780639ce5fdc3146100e0575b600080fd5b6100ab6100a636600461079b565b61014a565b005b6100b56102b1565b6040516100c29190610854565b60405180910390f35b6100d36102c0565b6040516100c29190610931565b6100d36100ee36600461079b565b6102c6565b6100d3610101366004610824565b6103dd565b6100d36101143660046107c6565b610521565b61012c610127366004610763565b6105da565b6040516100c292919061093a565b6100ab6105f3565b6100d3610731565b600260005414156101765760405162461bcd60e51b815260040161016d906108cf565b60405180910390fd5b6002600055600154604080516303e21fa960e61b815290516001600160a01b039092169163f887ea4091600480820192602092909190829003018186803b1580156101c057600080fd5b505afa1580156101d4573d6000803e3d6000fd5b505050506040513d601f19601f820116820180604052506101f8919081019061077f565b6001600160a01b0316336001600160a01b0316146102285760405162461bcd60e51b815260040161016d90610906565b600081116102485760405162461bcd60e51b815260040161016d9061089f565b6001600160a01b0382166000908152600260205260409020600454600182015410156102765781815561028b565b8054610288908363ffffffff61073716565b81555b4260018201556003546102a4908363ffffffff61073716565b6003555050600160005550565b6001546001600160a01b031681565b60035481565b6000806102d2836103dd565b9050806102e35760009150506103d7565b6001600160a01b0384166000908152600260209081526040808320815180830190925280548252600101549181019190915261031f9085610521565b90506000600160009054906101000a90046001600160a01b03166001600160a01b03166344a621666040518163ffffffff1660e01b815260040160206040518083038186803b15801561037157600080fd5b505afa158015610385573d6000803e3d6000fd5b505050506040513d601f19601f820116820180604052506103a9919081019061083c565b905060008282116103bb5760006103bf565b8282035b90508381116103ce57806103d0565b835b9450505050505b92915050565b60008060035490508261047e600160009054906101000a90046001600160a01b03166001600160a01b031663929867b86040518163ffffffff1660e01b815260040160206040518083038186803b15801561043757600080fd5b505afa15801561044b573d6000803e3d6000fd5b505050506040513d601f19601f8201168201806040525061046f919081019061083c565b6004549063ffffffff61073716565b1015610488575060005b60015460408051633f66e06960e11b815290516000926001600160a01b031691637ecdc0d2916004808301926020929190829003018186803b1580156104cd57600080fd5b505afa1580156104e1573d6000803e3d6000fd5b505050506040513d601f19601f82011682018060405250610505919081019061083c565b9050818111610515576000610519565b8181035b949350505050565b60048054600154604080516312530cf760e31b8152905160009486936105b5936001600160a01b039091169263929867b892828101926020929190829003018186803b15801561057057600080fd5b505afa158015610584573d6000803e3d6000fd5b505050506040513d601f19601f820116820180604052506105a8919081019061083c565b839063ffffffff61073716565b10156105be5750815b80846020015110156105d1576000610519565b50509051919050565b6002602052600090815260409020805460019091015482565b600260005414156106165760405162461bcd60e51b815260040161016d906108cf565b6002600055600154604080516303e21fa960e61b815290516001600160a01b039092169163f887ea4091600480820192602092909190829003018186803b15801561066057600080fd5b505afa158015610674573d6000803e3d6000fd5b505050506040513d601f19601f82011682018060405250610698919081019061077f565b6001600160a01b0316336001600160a01b0316146106c85760405162461bcd60e51b815260040161016d90610906565b4261071a600160009054906101000a90046001600160a01b03166001600160a01b031663929867b86040518163ffffffff1660e01b815260040160206040518083038186803b15801561043757600080fd5b101561072a576000600355426004555b6001600055565b60045481565b60008282018381101561075c5760405162461bcd60e51b815260040161016d90610868565b9392505050565b600060208284031215610774578081fd5b813561075c81610948565b600060208284031215610790578081fd5b815161075c81610948565b600080604083850312156107ad578081fd5b82356107b881610948565b946020939093013593505050565b60008082840360608112156107d9578283fd5b60408112156107e6578283fd5b506040516040810181811067ffffffffffffffff82111715610806578384fd5b60409081528435825260208086013590830152909593013593505050565b600060208284031215610835578081fd5b5035919050565b60006020828403121561084d578081fd5b5051919050565b6001600160a01b0391909116815260200190565b6020808252601b908201527f536166654d6174683a206164646974696f6e206f766572666c6f770000000000604082015260600190565b602080825260169082015275467265654665653a20696e76616c696420757361676560501b604082015260600190565b6020808252601f908201527f5265656e7472616e637947756172643a207265656e7472616e742063616c6c00604082015260600190565b60208082526011908201527027b7363c9d1037b7363c903937baba32b960791b604082015260600190565b90815260200190565b918252602082015260400190565b6001600160a01b038116811461095d57600080fd5b5056fea264697066735822122079f023a805a139685372fa381ff2db670f93036f3062ad2bb0d6bbb789d7431864736f6c63430006020033",
  "devdoc": {
    "methods": {
      "consume(address,uint256)": {
        "details": "Consume user usage, it only can be called by router.",
        "params": {
          "usage": "Usage amount",
          "user": "Transaction sender"
        }
      },
      "estimateFreeFee(address,uint256)": {
        "details": "Estimate user daily free fee left.",
        "params": {
          "timestamp": "Current timestamp",
          "user": "User address"
        }
      },
      "estimateTotalLeft(uint256)": {
        "details": "Estimate total daily free fee left.",
        "params": {
          "timestamp": "Current timestamp"
        }
      },
      "estimateUsage((uint256,uint256),uint256)": {
        "details": "Estimate user daily free fee usage.",
        "params": {
          "timestamp": "Current timestamp",
          "ui": "User usage information"
        }
      },
      "onAfterBlock()": {
        "details": "After block callback, it only can be called by router,     it will update `globalTimestamp` if the time interval exceeds `freeFeeRecoverInterval`"
      }
    }
  },
  "userdoc": {
    "methods": {}
  },
  "storageLayout": {
    "storage": [
      {
        "astId": 1404,
        "contract": "src/FreeFee.sol:FreeFee",
        "label": "_status",
        "offset": 0,
        "slot": "0",
        "type": "t_uint256"
      },
      {
        "astId": 3757,
        "contract": "src/FreeFee.sol:FreeFee",
        "label": "config",
        "offset": 0,
        "slot": "1",
        "type": "t_contract(IConfig)6296"
      },
      {
        "astId": 3501,
        "contract": "src/FreeFee.sol:FreeFee",
        "label": "userUsage",
        "offset": 0,
        "slot": "2",
        "type": "t_mapping(t_address,t_struct(UsageInfo)6532_storage)"
      },
      {
        "astId": 3504,
        "contract": "src/FreeFee.sol:FreeFee",
        "label": "totalUsage",
        "offset": 0,
        "slot": "3",
        "type": "t_uint256"
      },
      {
        "astId": 3507,
        "contract": "src/FreeFee.sol:FreeFee",
        "label": "globalTimestamp",
        "offset": 0,
        "slot": "4",
        "type": "t_uint256"
      }
    ],
    "types": {
      "t_address": {
        "encoding": "inplace",
        "label": "address",
        "numberOfBytes": "20"
      },
      "t_contract(IConfig)6296": {
        "encoding": "inplace",
        "label": "contract IConfig",
        "numberOfBytes": "20"
      },
      "t_mapping(t_address,t_struct(UsageInfo)6532_storage)": {
        "encoding": "mapping",
        "key": "t_address",
        "label": "mapping(address => struct IFreeFee.UsageInfo)",
        "numberOfBytes": "32",
        "value": "t_struct(UsageInfo)6532_storage"
      },
      "t_struct(UsageInfo)6532_storage": {
        "encoding": "inplace",
        "label": "struct IFreeFee.UsageInfo",
        "members": [
          {
            "astId": 6529,
            "contract": "src/FreeFee.sol:FreeFee",
            "label": "usage",
            "offset": 0,
            "slot": "0",
            "type": "t_uint256"
          },
          {
            "astId": 6531,
            "contract": "src/FreeFee.sol:FreeFee",
            "label": "timestamp",
            "offset": 0,
            "slot": "1",
            "type": "t_uint256"
          }
        ],
        "numberOfBytes": "64"
      },
      "t_uint256": {
        "encoding": "inplace",
        "label": "uint256",
        "numberOfBytes": "32"
      }
    }
  }
}