{
  "address": "0x9fE46736679d2D9a65F0992F2272dE9f3c7fa6e0",
  "abi": [
    {
      "inputs": [
        {
          "internalType": "contract IConfig",
          "name": "config",
          "type": "address"
        }
      ],
      "stateMutability": "nonpayable",
      "type": "constructor"
    },
    {
      "inputs": [
        {
          "internalType": "address",
          "name": "",
          "type": "address"
        }
      ],
      "name": "balanceOf",
      "outputs": [
        {
          "internalType": "uint256",
          "name": "",
          "type": "uint256"
        }
      ],
      "stateMutability": "view",
      "type": "function"
    },
    {
      "inputs": [],
      "name": "config",
      "outputs": [
        {
          "internalType": "contract IConfig",
          "name": "",
          "type": "address"
        }
      ],
      "stateMutability": "view",
      "type": "function"
    },
    {
      "inputs": [
        {
          "internalType": "address",
          "name": "validator",
          "type": "address"
        }
      ],
      "name": "deposit",
      "outputs": [
        {
          "internalType": "uint256",
          "name": "shares",
          "type": "uint256"
        }
      ],
      "stateMutability": "payable",
      "type": "function"
    },
    {
      "inputs": [
        {
          "internalType": "address",
          "name": "validator",
          "type": "address"
        },
        {
          "internalType": "uint8",
          "name": "factor",
          "type": "uint8"
        }
      ],
      "name": "slash",
      "outputs": [
        {
          "internalType": "uint256",
          "name": "amount",
          "type": "uint256"
        }
      ],
      "stateMutability": "nonpayable",
      "type": "function"
    },
    {
      "inputs": [
        {
          "internalType": "address",
          "name": "",
          "type": "address"
        }
      ],
      "name": "totalSupplyOf",
      "outputs": [
        {
          "internalType": "uint256",
          "name": "",
          "type": "uint256"
        }
      ],
      "stateMutability": "view",
      "type": "function"
    },
    {
      "inputs": [
        {
          "internalType": "address",
          "name": "validator",
          "type": "address"
        },
        {
          "internalType": "uint256",
          "name": "shares",
          "type": "uint256"
        },
        {
          "internalType": "address payable",
          "name": "to",
          "type": "address"
        }
      ],
      "name": "withdraw",
      "outputs": [
        {
          "internalType": "uint256",
          "name": "amount",
          "type": "uint256"
        }
      ],
      "stateMutability": "nonpayable",
      "type": "function"
    }
  ],
  "transactionHash": "0x8bc9874c31c91cd5830adc0cbda234fc15b4f1dabddc7e0c34c65d9e039ddc38",
  "args": [
    "0x5FbDB2315678afecb367f032d93F642f64180aa3"
  ],
  "solcInputHash": "140b184ea212973259cc7f2e35ce1b61",
  "bytecode": "0x608060405234801561001057600080fd5b50604051610be6380380610be68339818101604052602081101561003357600080fd5b50516001600081905580546001600160a01b039092166001600160a01b0319909216919091179055610b7c8061006a6000396000f3fe6080604052600436106100555760003560e01c806330b409a41461005a57806369328dec146100a857806370a08231146100eb57806379502c551461011e578063cf9530d01461014f578063f340fa0114610182575b600080fd5b34801561006657600080fd5b506100966004803603604081101561007d57600080fd5b5080356001600160a01b0316906020013560ff166101a8565b60408051918252519081900360200190f35b3480156100b457600080fd5b50610096600480360360608110156100cb57600080fd5b506001600160a01b038135811691602081013591604090910135166103d1565b3480156100f757600080fd5b506100966004803603602081101561010e57600080fd5b50356001600160a01b03166105f6565b34801561012a57600080fd5b50610133610608565b604080516001600160a01b039092168252519081900360200190f35b34801561015b57600080fd5b506100966004803603602081101561017257600080fd5b50356001600160a01b0316610617565b6100966004803603602081101561019857600080fd5b50356001600160a01b0316610629565b600060026000541415610202576040805162461bcd60e51b815260206004820152601f60248201527f5265656e7472616e637947756172643a207265656e7472616e742063616c6c00604482015290519081900360640190fd5b600260005560015460408051637542ff9560e01b815290516001600160a01b0390921691637542ff9591600480820192602092909190829003018186803b15801561024c57600080fd5b505afa158015610260573d6000803e3d6000fd5b505050506040513d602081101561027657600080fd5b50516001600160a01b031633146102cf576040805162461bcd60e51b815260206004820152601860248201527727b7363c9d1037b7363c9039ba30b5b29036b0b730b3b2b960411b604482015290519081900360640190fd5b60648260ff161115610328576040805162461bcd60e51b815260206004820152601b60248201527f556e7374616b65506f6f6c3a20696e76616c696420666163746f720000000000604482015290519081900360640190fd5b6001600160a01b03831660009081526002602052604090205461036560646103598360ff871663ffffffff61089c16565b9063ffffffff6108fe16565b915081156103c55761037d818363ffffffff61094016565b6001600160a01b03851660009081526002602052604080822092909255905183156108fc0290849083818181858288f193505050501580156103c3573d6000803e3d6000fd5b505b50600160005592915050565b60006002600054141561042b576040805162461bcd60e51b815260206004820152601f60248201527f5265656e7472616e637947756172643a207265656e7472616e742063616c6c00604482015290519081900360640190fd5b600260005560015460408051637542ff9560e01b815290516001600160a01b0390921691637542ff9591600480820192602092909190829003018186803b15801561047557600080fd5b505afa158015610489573d6000803e3d6000fd5b505050506040513d602081101561049f57600080fd5b50516001600160a01b031633146104f8576040805162461bcd60e51b815260206004820152601860248201527727b7363c9d1037b7363c9039ba30b5b29036b0b730b3b2b960411b604482015290519081900360640190fd5b6001600160a01b0384166000908152600260209081526040808320546003909252909120548061052b5760009250610542565b61053f81610359878563ffffffff61089c16565b92505b61056d85604051806060016040528060268152602001610b216026913983919063ffffffff61097e16565b6001600160a01b03871660009081526003602052604090205582156105e85761059c828463ffffffff61094016565b6001600160a01b038088166000908152600260205260408082209390935591519086169185156108fc02918691818181858888f193505050501580156105e6573d6000803e3d6000fd5b505b505060016000559392505050565b60026020526000908152604090205481565b6001546001600160a01b031681565b60036020526000908152604090205481565b600060026000541415610683576040805162461bcd60e51b815260206004820152601f60248201527f5265656e7472616e637947756172643a207265656e7472616e742063616c6c00604482015290519081900360640190fd5b600260005560015460408051637542ff9560e01b815290516001600160a01b0390921691637542ff9591600480820192602092909190829003018186803b1580156106cd57600080fd5b505afa1580156106e1573d6000803e3d6000fd5b505050506040513d60208110156106f757600080fd5b50516001600160a01b03163314610750576040805162461bcd60e51b815260206004820152601860248201527727b7363c9d1037b7363c9039ba30b5b29036b0b730b3b2b960411b604482015290519081900360640190fd5b6001600160a01b038216600090815260026020908152604080832054600390925290912054806107915761078a823463ffffffff610a1516565b92506107e7565b600082116107d05760405162461bcd60e51b815260040180806020018281038252602b815260200180610ad5602b913960400191505060405180910390fd5b6107e482610359348463ffffffff61089c16565b92505b6000831161083c576040805162461bcd60e51b815260206004820181905260248201527f556e7374616b65506f6f6c3a20696e73756666696369656e7420736861726573604482015290519081900360640190fd5b61084c823463ffffffff610a1516565b6001600160a01b038516600090815260026020526040902055610875818463ffffffff610a1516565b6001600160a01b039094166000908152600360205260408120949094555050600190915590565b6000826108ab575060006108f8565b828202828482816108b857fe5b04146108f55760405162461bcd60e51b8152600401808060200182810382526021815260200180610b006021913960400191505060405180910390fd5b90505b92915050565b60006108f583836040518060400160405280601a81526020017f536166654d6174683a206469766973696f6e206279207a65726f000000000000815250610a6f565b60006108f583836040518060400160405280601e81526020017f536166654d6174683a207375627472616374696f6e206f766572666c6f7700008152505b60008184841115610a0d5760405162461bcd60e51b81526004018080602001828103825283818151815260200191508051906020019080838360005b838110156109d25781810151838201526020016109ba565b50505050905090810190601f1680156109ff5780820380516001836020036101000a031916815260200191505b509250505060405180910390fd5b505050900390565b6000828201838110156108f5576040805162461bcd60e51b815260206004820152601b60248201527f536166654d6174683a206164646974696f6e206f766572666c6f770000000000604482015290519081900360640190fd5b60008183610abe5760405162461bcd60e51b81526020600482018181528351602484015283519092839260449091019190850190808383600083156109d25781810151838201526020016109ba565b506000838581610aca57fe5b049594505050505056fe556e7374616b65506f6f6c3a20696e73756666696369656e742076616c696461746f722062616c616e6365536166654d6174683a206d756c7469706c69636174696f6e206f766572666c6f77556e7374616b65506f6f6c3a20696e73756666696369656e7420746f74616c20737570706c79a2646970667358221220dcf5abeaa038f5dbf2ff41f7a39b8dfe5c3295f5afebbc1a5e33ed3212c3481c64736f6c63430006020033",
  "devdoc": {
    "methods": {
      "deposit(address)": {
        "details": "Deposit GXC to `UnstakePool`, only can be called by stake manager,     this will be called when user starts unstake.",
        "params": {
          "validator": "Validator address."
        }
      },
      "slash(address,uint8)": {
        "details": "Slash validator and transfer the slashed amount to `address(0)`.",
        "params": {
          "factor": "Slash factor.",
          "validator": "Validator address."
        }
      },
      "withdraw(address,uint256,address)": {
        "details": "Withdraw GXC and burn shares, only can be called by stake manager,     this will be called when unstake timeout.",
        "params": {
          "shares": "Number of shares.",
          "to": "GXC receiver address(this value is set when the user starts unstake).",
          "validator": "Validator address."
        }
      }
    }
  },
  "userdoc": {
    "methods": {}
  },
  "storageLayout": {
    "storage": [
      {
        "astId": 1404,
        "contract": "src/UnstakePool.sol:UnstakePool",
        "label": "_status",
        "offset": 0,
        "slot": "0",
        "type": "t_uint256"
      },
      {
        "astId": 3757,
        "contract": "src/UnstakePool.sol:UnstakePool",
        "label": "config",
        "offset": 0,
        "slot": "1",
        "type": "t_contract(IConfig)6296"
      },
      {
        "astId": 5748,
        "contract": "src/UnstakePool.sol:UnstakePool",
        "label": "balanceOf",
        "offset": 0,
        "slot": "2",
        "type": "t_mapping(t_address,t_uint256)"
      },
      {
        "astId": 5753,
        "contract": "src/UnstakePool.sol:UnstakePool",
        "label": "totalSupplyOf",
        "offset": 0,
        "slot": "3",
        "type": "t_mapping(t_address,t_uint256)"
      }
    ],
    "types": {
      "t_address": {
        "encoding": "inplace",
        "label": "address",
        "numberOfBytes": "20"
      },
      "t_contract(IConfig)6296": {
        "encoding": "inplace",
        "label": "contract IConfig",
        "numberOfBytes": "20"
      },
      "t_mapping(t_address,t_uint256)": {
        "encoding": "mapping",
        "key": "t_address",
        "label": "mapping(address => uint256)",
        "numberOfBytes": "32",
        "value": "t_uint256"
      },
      "t_uint256": {
        "encoding": "inplace",
        "label": "uint256",
        "numberOfBytes": "32"
      }
    }
  }
}